{
  "contractName": "CommunityTour",
  "abi": [
    {
      "inputs": [],
      "payable": false,
      "stateMutability": "nonpayable",
      "type": "constructor"
    },
    {
      "constant": true,
      "inputs": [
        {
          "internalType": "address",
          "name": "",
          "type": "address"
        }
      ],
      "name": "ListOfInvestment",
      "outputs": [
        {
          "internalType": "uint256",
          "name": "",
          "type": "uint256"
        }
      ],
      "payable": false,
      "stateMutability": "view",
      "type": "function"
    },
    {
      "constant": true,
      "inputs": [
        {
          "internalType": "uint256",
          "name": "",
          "type": "uint256"
        }
      ],
      "name": "becomeDepty",
      "outputs": [
        {
          "internalType": "address",
          "name": "",
          "type": "address"
        }
      ],
      "payable": false,
      "stateMutability": "view",
      "type": "function"
    },
    {
      "constant": true,
      "inputs": [
        {
          "internalType": "uint256",
          "name": "",
          "type": "uint256"
        }
      ],
      "name": "becomeInvestor",
      "outputs": [
        {
          "internalType": "address",
          "name": "",
          "type": "address"
        }
      ],
      "payable": false,
      "stateMutability": "view",
      "type": "function"
    },
    {
      "constant": true,
      "inputs": [
        {
          "internalType": "address",
          "name": "",
          "type": "address"
        },
        {
          "internalType": "address",
          "name": "",
          "type": "address"
        }
      ],
      "name": "deptTableDepty",
      "outputs": [
        {
          "internalType": "uint256",
          "name": "",
          "type": "uint256"
        }
      ],
      "payable": false,
      "stateMutability": "view",
      "type": "function"
    },
    {
      "constant": true,
      "inputs": [
        {
          "internalType": "address",
          "name": "",
          "type": "address"
        },
        {
          "internalType": "address",
          "name": "",
          "type": "address"
        }
      ],
      "name": "deptTableInvestor",
      "outputs": [
        {
          "internalType": "uint256",
          "name": "",
          "type": "uint256"
        }
      ],
      "payable": false,
      "stateMutability": "view",
      "type": "function"
    },
    {
      "constant": true,
      "inputs": [
        {
          "internalType": "address",
          "name": "",
          "type": "address"
        },
        {
          "internalType": "uint256",
          "name": "",
          "type": "uint256"
        }
      ],
      "name": "listOfDepty",
      "outputs": [
        {
          "internalType": "address",
          "name": "",
          "type": "address"
        }
      ],
      "payable": false,
      "stateMutability": "view",
      "type": "function"
    },
    {
      "constant": true,
      "inputs": [
        {
          "internalType": "address",
          "name": "",
          "type": "address"
        },
        {
          "internalType": "uint256",
          "name": "",
          "type": "uint256"
        }
      ],
      "name": "listOfInvestor",
      "outputs": [
        {
          "internalType": "address",
          "name": "",
          "type": "address"
        }
      ],
      "payable": false,
      "stateMutability": "view",
      "type": "function"
    },
    {
      "constant": true,
      "inputs": [],
      "name": "minValue",
      "outputs": [
        {
          "internalType": "uint256",
          "name": "",
          "type": "uint256"
        }
      ],
      "payable": false,
      "stateMutability": "view",
      "type": "function"
    },
    {
      "constant": true,
      "inputs": [],
      "name": "totalAmount",
      "outputs": [
        {
          "internalType": "uint256",
          "name": "",
          "type": "uint256"
        }
      ],
      "payable": false,
      "stateMutability": "view",
      "type": "function"
    },
    {
      "constant": true,
      "inputs": [
        {
          "internalType": "address",
          "name": "",
          "type": "address"
        }
      ],
      "name": "totalOfDept",
      "outputs": [
        {
          "internalType": "uint256",
          "name": "",
          "type": "uint256"
        }
      ],
      "payable": false,
      "stateMutability": "view",
      "type": "function"
    },
    {
      "constant": false,
      "inputs": [],
      "name": "deletFromDepty",
      "outputs": [],
      "payable": false,
      "stateMutability": "nonpayable",
      "type": "function"
    },
    {
      "constant": false,
      "inputs": [],
      "name": "deletFromInvestor",
      "outputs": [],
      "payable": false,
      "stateMutability": "nonpayable",
      "type": "function"
    },
    {
      "constant": false,
      "inputs": [
        {
          "internalType": "address",
          "name": "_to",
          "type": "address"
        }
      ],
      "name": "repay",
      "outputs": [],
      "payable": true,
      "stateMutability": "payable",
      "type": "function"
    },
    {
      "constant": false,
      "inputs": [
        {
          "internalType": "address",
          "name": "_investor",
          "type": "address"
        }
      ],
      "name": "become_Investor",
      "outputs": [],
      "payable": false,
      "stateMutability": "nonpayable",
      "type": "function"
    },
    {
      "constant": false,
      "inputs": [
        {
          "internalType": "address",
          "name": "_Depty",
          "type": "address"
        }
      ],
      "name": "become_Depty",
      "outputs": [],
      "payable": false,
      "stateMutability": "nonpayable",
      "type": "function"
    },
    {
      "constant": true,
      "inputs": [],
      "name": "getOwner",
      "outputs": [
        {
          "internalType": "address",
          "name": "",
          "type": "address"
        }
      ],
      "payable": false,
      "stateMutability": "view",
      "type": "function"
    },
    {
      "constant": true,
      "inputs": [
        {
          "internalType": "address",
          "name": "person",
          "type": "address"
        }
      ],
      "name": "getBalance",
      "outputs": [
        {
          "internalType": "uint256",
          "name": "",
          "type": "uint256"
        }
      ],
      "payable": false,
      "stateMutability": "view",
      "type": "function"
    },
    {
      "constant": true,
      "inputs": [
        {
          "internalType": "address",
          "name": "_investor",
          "type": "address"
        }
      ],
      "name": "getTotalAmountInvested",
      "outputs": [
        {
          "internalType": "uint256",
          "name": "",
          "type": "uint256"
        }
      ],
      "payable": false,
      "stateMutability": "view",
      "type": "function"
    },
    {
      "constant": true,
      "inputs": [
        {
          "internalType": "address",
          "name": "_depty",
          "type": "address"
        }
      ],
      "name": "getDeptAmount",
      "outputs": [
        {
          "internalType": "uint256",
          "name": "",
          "type": "uint256"
        }
      ],
      "payable": false,
      "stateMutability": "view",
      "type": "function"
    },
    {
      "constant": false,
      "inputs": [
        {
          "internalType": "address payable",
          "name": "_to",
          "type": "address"
        }
      ],
      "name": "Transfer",
      "outputs": [],
      "payable": true,
      "stateMutability": "payable",
      "type": "function"
    }
  ],
  "bytecode": "0x608060405266038d7ea4c6800060015534801561001b57600080fd5b5033600260006101000a81548173ffffffffffffffffffffffffffffffffffffffff021916908373ffffffffffffffffffffffffffffffffffffffff1602179055506117128061006c6000396000f3fe60806040526004361061011f5760003560e01c8063963e63c7116100a0578063c91057fa11610064578063c91057fa14610697578063dbd87fbd146106fc578063f12b828214610713578063f8b2cb4f1461078e578063fdc10a45146107f35761011f565b8063963e63c7146105115780639f7c73e91461053c578063a10c2aad14610580578063bbc98908146105fb578063bcb69a9d146106125761011f565b8063217c9bf5116100e7578063217c9bf5146102bb5780632d339b1e146103565780632edd364d1461039a5780636ccad7101461041f578063893d20e8146104ba5761011f565b80630189cf50146101245780630b9c8397146101895780631a39d8ef146101da5780631ab53c7d146102055780631bcaf8451461026a575b600080fd5b34801561013057600080fd5b506101736004803603602081101561014757600080fd5b81019080803573ffffffffffffffffffffffffffffffffffffffff169060200190929190505050610858565b6040518082815260200191505060405180910390f35b34801561019557600080fd5b506101d8600480360360208110156101ac57600080fd5b81019080803573ffffffffffffffffffffffffffffffffffffffff1690602001909291905050506108a1565b005b3480156101e657600080fd5b506101ef61090a565b6040518082815260200191505060405180910390f35b34801561021157600080fd5b506102546004803603602081101561022857600080fd5b81019080803573ffffffffffffffffffffffffffffffffffffffff169060200190929190505050610910565b6040518082815260200191505060405180910390f35b34801561027657600080fd5b506102b96004803603602081101561028d57600080fd5b81019080803573ffffffffffffffffffffffffffffffffffffffff169060200190929190505050610959565b005b3480156102c757600080fd5b50610314600480360360408110156102de57600080fd5b81019080803573ffffffffffffffffffffffffffffffffffffffff169060200190929190803590602001909291905050506109c2565b604051808273ffffffffffffffffffffffffffffffffffffffff1673ffffffffffffffffffffffffffffffffffffffff16815260200191505060405180910390f35b6103986004803603602081101561036c57600080fd5b81019080803573ffffffffffffffffffffffffffffffffffffffff169060200190929190505050610a0d565b005b3480156103a657600080fd5b50610409600480360360408110156103bd57600080fd5b81019080803573ffffffffffffffffffffffffffffffffffffffff169060200190929190803573ffffffffffffffffffffffffffffffffffffffff169060200190929190505050610ef1565b6040518082815260200191505060405180910390f35b34801561042b57600080fd5b506104786004803603604081101561044257600080fd5b81019080803573ffffffffffffffffffffffffffffffffffffffff16906020019092919080359060200190929190505050610f16565b604051808273ffffffffffffffffffffffffffffffffffffffff1673ffffffffffffffffffffffffffffffffffffffff16815260200191505060405180910390f35b3480156104c657600080fd5b506104cf610f61565b604051808273ffffffffffffffffffffffffffffffffffffffff1673ffffffffffffffffffffffffffffffffffffffff16815260200191505060405180910390f35b34801561051d57600080fd5b50610526610f8b565b6040518082815260200191505060405180910390f35b61057e6004803603602081101561055257600080fd5b81019080803573ffffffffffffffffffffffffffffffffffffffff169060200190929190505050610f91565b005b34801561058c57600080fd5b506105b9600480360360208110156105a357600080fd5b81019080803590602001909291905050506113d1565b604051808273ffffffffffffffffffffffffffffffffffffffff1673ffffffffffffffffffffffffffffffffffffffff16815260200191505060405180910390f35b34801561060757600080fd5b5061061061140d565b005b34801561061e57600080fd5b506106816004803603604081101561063557600080fd5b81019080803573ffffffffffffffffffffffffffffffffffffffff169060200190929190803573ffffffffffffffffffffffffffffffffffffffff1690602001909291905050506114f3565b6040518082815260200191505060405180910390f35b3480156106a357600080fd5b506106e6600480360360208110156106ba57600080fd5b81019080803573ffffffffffffffffffffffffffffffffffffffff169060200190929190505050611518565b6040518082815260200191505060405180910390f35b34801561070857600080fd5b50610711611530565b005b34801561071f57600080fd5b5061074c6004803603602081101561073657600080fd5b8101908080359060200190929190505050611668565b604051808273ffffffffffffffffffffffffffffffffffffffff1673ffffffffffffffffffffffffffffffffffffffff16815260200191505060405180910390f35b34801561079a57600080fd5b506107dd600480360360208110156107b157600080fd5b81019080803573ffffffffffffffffffffffffffffffffffffffff1690602001909291905050506116a4565b6040518082815260200191505060405180910390f35b3480156107ff57600080fd5b506108426004803603602081101561081657600080fd5b81019080803573ffffffffffffffffffffffffffffffffffffffff1690602001909291905050506116c5565b6040518082815260200191505060405180910390f35b6000600860008373ffffffffffffffffffffffffffffffffffffffff1673ffffffffffffffffffffffffffffffffffffffff168152602001908152602001600020549050919050565b60038190806001815401808255809150509060018203906000526020600020016000909192909190916101000a81548173ffffffffffffffffffffffffffffffffffffffff021916908373ffffffffffffffffffffffffffffffffffffffff1602179055505050565b60005481565b6000600760008373ffffffffffffffffffffffffffffffffffffffff1673ffffffffffffffffffffffffffffffffffffffff168152602001908152602001600020549050919050565b60048190806001815401808255809150509060018203906000526020600020016000909192909190916101000a81548173ffffffffffffffffffffffffffffffffffffffff021916908373ffffffffffffffffffffffffffffffffffffffff1602179055505050565b600a60205281600052604060002081815481106109db57fe5b906000526020600020016000915091509054906101000a900473ffffffffffffffffffffffffffffffffffffffff1681565b33600080905060008090505b600380549050811015610aa3578273ffffffffffffffffffffffffffffffffffffffff1660038281548110610a4a57fe5b9060005260206000200160009054906101000a900473ffffffffffffffffffffffffffffffffffffffff1673ffffffffffffffffffffffffffffffffffffffff161415610a9657600191505b8080600101915050610a19565b5060008111610ab157600080fd5b82600080905060008090505b600480549050811015610b47578273ffffffffffffffffffffffffffffffffffffffff1660048281548110610aee57fe5b9060005260206000200160009054906101000a900473ffffffffffffffffffffffffffffffffffffffff1673ffffffffffffffffffffffffffffffffffffffff161415610b3a57600191505b8080600101915050610abd565b5060008111610b5557600080fd5b600154610b83600260009054906101000a900473ffffffffffffffffffffffffffffffffffffffff166116a4565b11610b8d57600080fd5b6001543411610b9b57600080fd5b8473ffffffffffffffffffffffffffffffffffffffff166108fc349081150290604051600060405180830381858888f19350505050158015610be1573d6000803e3d6000fd5b5034600560003373ffffffffffffffffffffffffffffffffffffffff1673ffffffffffffffffffffffffffffffffffffffff16815260200190815260200160002060008773ffffffffffffffffffffffffffffffffffffffff1673ffffffffffffffffffffffffffffffffffffffff1681526020019081526020016000205401600560003373ffffffffffffffffffffffffffffffffffffffff1673ffffffffffffffffffffffffffffffffffffffff16815260200190815260200160002060008773ffffffffffffffffffffffffffffffffffffffff1673ffffffffffffffffffffffffffffffffffffffff1681526020019081526020016000208190555034600660008773ffffffffffffffffffffffffffffffffffffffff1673ffffffffffffffffffffffffffffffffffffffff16815260200190815260200160002060003373ffffffffffffffffffffffffffffffffffffffff1673ffffffffffffffffffffffffffffffffffffffff1681526020019081526020016000205401600660008773ffffffffffffffffffffffffffffffffffffffff1673ffffffffffffffffffffffffffffffffffffffff16815260200190815260200160002060003373ffffffffffffffffffffffffffffffffffffffff1673ffffffffffffffffffffffffffffffffffffffff1681526020019081526020016000208190555034600760008773ffffffffffffffffffffffffffffffffffffffff1673ffffffffffffffffffffffffffffffffffffffff1681526020019081526020016000205401600760008773ffffffffffffffffffffffffffffffffffffffff1673ffffffffffffffffffffffffffffffffffffffff1681526020019081526020016000208190555034600860003373ffffffffffffffffffffffffffffffffffffffff1673ffffffffffffffffffffffffffffffffffffffff1681526020019081526020016000205401600860003373ffffffffffffffffffffffffffffffffffffffff1673ffffffffffffffffffffffffffffffffffffffff168152602001908152602001600020819055505050505050565b6006602052816000526040600020602052806000526040600020600091509150505481565b60096020528160005260406000208181548110610f2f57fe5b906000526020600020016000915091509054906101000a900473ffffffffffffffffffffffffffffffffffffffff1681565b6000600260009054906101000a900473ffffffffffffffffffffffffffffffffffffffff16905090565b60015481565b33600080905060008090505b600480549050811015611027578273ffffffffffffffffffffffffffffffffffffffff1660048281548110610fce57fe5b9060005260206000200160009054906101000a900473ffffffffffffffffffffffffffffffffffffffff1673ffffffffffffffffffffffffffffffffffffffff16141561101a57600191505b8080600101915050610f9d565b506000811161103557600080fd5b6000600660003373ffffffffffffffffffffffffffffffffffffffff1673ffffffffffffffffffffffffffffffffffffffff16815260200190815260200160002060008573ffffffffffffffffffffffffffffffffffffffff1673ffffffffffffffffffffffffffffffffffffffff168152602001908152602001600020549050348110156110c357600080fd5b34600560008673ffffffffffffffffffffffffffffffffffffffff1673ffffffffffffffffffffffffffffffffffffffff16815260200190815260200160002060003373ffffffffffffffffffffffffffffffffffffffff1673ffffffffffffffffffffffffffffffffffffffff1681526020019081526020016000205403600560008673ffffffffffffffffffffffffffffffffffffffff1673ffffffffffffffffffffffffffffffffffffffff16815260200190815260200160002060003373ffffffffffffffffffffffffffffffffffffffff1673ffffffffffffffffffffffffffffffffffffffff1681526020019081526020016000208190555034600660003373ffffffffffffffffffffffffffffffffffffffff1673ffffffffffffffffffffffffffffffffffffffff16815260200190815260200160002060008673ffffffffffffffffffffffffffffffffffffffff1673ffffffffffffffffffffffffffffffffffffffff1681526020019081526020016000205403600660003373ffffffffffffffffffffffffffffffffffffffff1673ffffffffffffffffffffffffffffffffffffffff16815260200190815260200160002060008673ffffffffffffffffffffffffffffffffffffffff1673ffffffffffffffffffffffffffffffffffffffff1681526020019081526020016000208190555034600760003373ffffffffffffffffffffffffffffffffffffffff1673ffffffffffffffffffffffffffffffffffffffff1681526020019081526020016000205403600760003373ffffffffffffffffffffffffffffffffffffffff1673ffffffffffffffffffffffffffffffffffffffff1681526020019081526020016000208190555034600860008673ffffffffffffffffffffffffffffffffffffffff1673ffffffffffffffffffffffffffffffffffffffff1681526020019081526020016000205403600860008673ffffffffffffffffffffffffffffffffffffffff1673ffffffffffffffffffffffffffffffffffffffff1681526020019081526020016000208190555050505050565b600481815481106113de57fe5b906000526020600020016000915054906101000a900473ffffffffffffffffffffffffffffffffffffffff1681565b60008090505b6003805490508110156114f0573373ffffffffffffffffffffffffffffffffffffffff166003828154811061144457fe5b9060005260206000200160009054906101000a900473ffffffffffffffffffffffffffffffffffffffff1673ffffffffffffffffffffffffffffffffffffffff1614156114e35760006003828154811061149a57fe5b9060005260206000200160006101000a81548173ffffffffffffffffffffffffffffffffffffffff021916908373ffffffffffffffffffffffffffffffffffffffff1602179055505b8080600101915050611413565b50565b6005602052816000526040600020602052806000526040600020600091509150505481565b60076020528060005260406000206000915090505481565b6000600760003373ffffffffffffffffffffffffffffffffffffffff1673ffffffffffffffffffffffffffffffffffffffff1681526020019081526020016000205490506000811461158157600080fd5b60008090505b600480549050811015611664573373ffffffffffffffffffffffffffffffffffffffff16600482815481106115b857fe5b9060005260206000200160009054906101000a900473ffffffffffffffffffffffffffffffffffffffff1673ffffffffffffffffffffffffffffffffffffffff1614156116575760006004828154811061160e57fe5b9060005260206000200160006101000a81548173ffffffffffffffffffffffffffffffffffffffff021916908373ffffffffffffffffffffffffffffffffffffffff1602179055505b8080600101915050611587565b5050565b6003818154811061167557fe5b906000526020600020016000915054906101000a900473ffffffffffffffffffffffffffffffffffffffff1681565b60008173ffffffffffffffffffffffffffffffffffffffff16319050919050565b6008602052806000526040600020600091509050548156fea265627a7a7231582009f90621ee3deb169ce1f795fd83214aa88bbbdcb783855fb8372d5de33bf16164736f6c63430005100032",
  "source": "pragma solidity >=0.5.0 <0.9.0;\n\ncontract CommunityTour {\n    uint public totalAmount;\n    \n    // minmum value to book a ticket \n    uint256 public minValue = 1000000000000000;\n\n    address private owner;\n\n    //these parties can only participate in transfer of ether\n    address[] public becomeInvestor;\n    address[] public becomeDepty;\n   \n    // for getting investor to depty relation usefull for front-end\n    mapping (address =>  mapping(address => uint)) public deptTableInvestor;\n    mapping (address =>  mapping(address => uint) )public deptTableDepty;\n  \n  //total amount of ether for both investor and user\n   mapping(address => uint256 ) public totalOfDept;\n   mapping(address=> uint256) public ListOfInvestment;\n\n\n   //array of dependencies (1 to many)\n   mapping (address=>address[]) public listOfDepty;\n   mapping (address=>address[]) public listOfInvestor;\n\n   constructor() public{   \n        owner=msg.sender;\n    }\n     \n    // modifier function\n     modifier onlyInvestor(address id){\n        uint  counter=0;\n         for (uint i=0;i<becomeInvestor.length;i++){\n             if(becomeInvestor[i]==id){\n                 counter=1;\n             }\n\n         }\n         require(counter>0);\n        _;\n    }\n\n   // modifier function\n    modifier onlyDepty(address id){\n        uint  counter=0;\n         for (uint i=0;i<becomeDepty.length;i++){\n             if(becomeDepty[i]==id){\n                 counter=1;\n             }\n\n         }\n         require(counter>0);\n        _;\n    }\n\n    function deletFromDepty()public{\n      uint remaining= totalOfDept[msg.sender];\n        require(remaining==0);\n        for(uint i=0;i<becomeDepty.length;i++){\n            if(becomeDepty[i]==msg.sender){\n                becomeDepty[i]=address(0);\n            }\n        }\n    }\n    // even he removed from investor he will get back ether he invested\n     function deletFromInvestor()public{\n     \n        for(uint i=0;i<becomeInvestor.length;i++){\n            if(becomeInvestor[i]==msg.sender){\n                becomeInvestor[i]=address(0);\n            }\n        }\n    }\n\n    // ether return back to investor\n    function repay(address _to) public payable onlyDepty(msg.sender){\n        uint _amount = deptTableDepty[msg.sender][_to];\n        // no money should be extra paid\n        require(_amount>=msg.value);\n\n        deptTableInvestor[_to][msg.sender]=deptTableInvestor[_to][msg.sender]-msg.value;\n\n        deptTableDepty[msg.sender][_to]=deptTableDepty[msg.sender][_to]-msg.value;\n\n        totalOfDept[msg.sender] = totalOfDept[msg.sender] - msg.value;\n\n        ListOfInvestment[_to]=ListOfInvestment[_to]- msg.value;\n\n\n\n    }\n    \n\n   function become_Investor(address _investor)  public{\n       becomeInvestor.push(_investor);\n   }\n\n   function become_Depty(address _Depty) public{\n       becomeDepty.push(_Depty);\n   }\n\n\n    function getOwner(\n    ) public view returns (address) {    \n        return owner;\n    }\n  \n  \n    // Function to return \n    // current balance of person\n    function getBalance(address person\n    ) public view returns(uint256){\n   \n        return person.balance ;\n                              \n    }\n    \n    // get function to get the total amount\n    function getTotalAmountInvested(address _investor)  view public returns(uint256){\n        \n       return  ListOfInvestment[_investor];\n       }\n\n       \n       \n      \n   \n    \n    \n    function getDeptAmount(address _depty) view  public returns(uint256){\n     \n\n       \n       return totalOfDept[_depty];\n      \n    }\n    \n     // any Investor can send money to any Depty who is needed n number of time unless Depty hime self removed from Depty\n\n     // even we can set limit amount of he wanted and even the preson can reject a particular transction before execution these things will need more time.\n     //so not include in the project \n     function Transfer(address payable _to) public payable onlyInvestor(msg.sender) onlyDepty(_to){\n         \n         require(getBalance(owner)>minValue);\n         require(msg.value>minValue);\n         \n         \n        _to.transfer(msg.value);\n        \n        deptTableInvestor[msg.sender][_to]=deptTableInvestor[msg.sender][_to]+msg.value;\n\n        deptTableDepty[_to][msg.sender]=deptTableDepty[_to][msg.sender]+msg.value;\n\n        totalOfDept[_to] = totalOfDept[_to] + msg.value;\n\n        ListOfInvestment[msg.sender]=ListOfInvestment[msg.sender]+msg.value;\n\n\n\n\n       \n        \n        \n    }\n    \n    \n   \n}\n",
  "sourcePath": "/home/vishnu/starter_kit/src/contracts/CommunityTour.sol",
  "compiler": {
    "name": "solc",
    "version": "0.5.16+commit.9c3226ce.Emscripten.clang"
  },
  "schemaVersion": "3.2.3",
  "updatedAt": "2021-04-18T12:21:56.469Z",
  "networkType": "ethereum",
  "devdoc": {
    "methods": {}
  },
  "userdoc": {
    "methods": {}
  }
}